{
  "address": "0x0234E25474772BD5724632Ccf3ADE843fD5446EC",
  "abi": [
    {
      "inputs": [
        {
          "internalType": "uint256[]",
          "name": "R",
          "type": "uint256[]"
        },
        {
          "internalType": "uint256",
          "name": "S",
          "type": "uint256"
        }
      ],
      "name": "calculateADIA",
      "outputs": [
        {
          "internalType": "uint256",
          "name": "",
          "type": "uint256"
        }
      ],
      "stateMutability": "pure",
      "type": "function"
    },
    {
      "inputs": [
        {
          "internalType": "uint256[]",
          "name": "R",
          "type": "uint256[]"
        },
        {
          "internalType": "uint256",
          "name": "S",
          "type": "uint256"
        }
      ],
      "name": "calculateAFIA",
      "outputs": [
        {
          "internalType": "uint256",
          "name": "",
          "type": "uint256"
        }
      ],
      "stateMutability": "pure",
      "type": "function"
    },
    {
      "inputs": [
        {
          "internalType": "uint256[]",
          "name": "D",
          "type": "uint256[]"
        },
        {
          "internalType": "uint256[]",
          "name": "R",
          "type": "uint256[]"
        },
        {
          "internalType": "uint256",
          "name": "S",
          "type": "uint256"
        }
      ],
      "name": "calculateWDIA",
      "outputs": [
        {
          "internalType": "uint256",
          "name": "",
          "type": "uint256"
        }
      ],
      "stateMutability": "pure",
      "type": "function"
    },
    {
      "inputs": [
        {
          "internalType": "uint256[]",
          "name": "F",
          "type": "uint256[]"
        },
        {
          "internalType": "uint256[]",
          "name": "R",
          "type": "uint256[]"
        },
        {
          "internalType": "uint256",
          "name": "S",
          "type": "uint256"
        }
      ],
      "name": "calculateWFIA",
      "outputs": [
        {
          "internalType": "uint256",
          "name": "",
          "type": "uint256"
        }
      ],
      "stateMutability": "pure",
      "type": "function"
    }
  ],
  "transactionHash": "0x27ca6c4d6c510ed29034cd737d14273aff0901e0c49d06074c8fd14c791ccdb0",
  "args": [],
  "numDeployments": 1,
  "solcInputHash": "7733f8415ee6ff67439fc7a4ae1aa7c8",
  "bytecode": "0x608060405234801561001057600080fd5b50610464806100206000396000f3fe608060405234801561001057600080fd5b506004361061004c5760003560e01c80630d268d40146100515780635e9b60361461007657806376fbc44214610089578063f5bed7921461009c575b600080fd5b61006461005f3660046102eb565b6100af565b60405190815260200160405180910390f35b610064610084366004610358565b61012d565b6100646100973660046102eb565b610189565b6100646100aa366004610358565b6101f3565b600080805b8551811015610119578481815181106100cf576100cf61039d565b60200260200101518682815181106100e9576100e961039d565b60200260200101516100fb91906103c9565b61010590836103e0565b915080610111816103f3565b9150506100b4565b50610124838261040c565b95945050505050565b600080805b84518110156101745784818151811061014d5761014d61039d565b60200260200101518261016091906103e0565b91508061016c816103f3565b915050610132565b5061017f838261040c565b9150505b92915050565b600080805b8551811015610119578481815181106101a9576101a961039d565b60200260200101518682815181106101c3576101c361039d565b60200260200101516101d591906103c9565b6101df90836103e0565b9150806101eb816103f3565b91505061018e565b600080805b8451811015610174578481815181106102135761021361039d565b60200260200101518261022691906103e0565b915080610232816103f3565b9150506101f8565b634e487b7160e01b600052604160045260246000fd5b600082601f83011261026157600080fd5b8135602067ffffffffffffffff8083111561027e5761027e61023a565b8260051b604051601f19603f830116810181811084821117156102a3576102a361023a565b6040529384528581018301938381019250878511156102c157600080fd5b83870191505b848210156102e0578135835291830191908301906102c7565b979650505050505050565b60008060006060848603121561030057600080fd5b833567ffffffffffffffff8082111561031857600080fd5b61032487838801610250565b9450602086013591508082111561033a57600080fd5b5061034786828701610250565b925050604084013590509250925092565b6000806040838503121561036b57600080fd5b823567ffffffffffffffff81111561038257600080fd5b61038e85828601610250565b95602094909401359450505050565b634e487b7160e01b600052603260045260246000fd5b634e487b7160e01b600052601160045260246000fd5b8082028115828204841417610183576101836103b3565b80820180821115610183576101836103b3565b600060018201610405576104056103b3565b5060010190565b60008261042957634e487b7160e01b600052601260045260246000fd5b50049056fea2646970667358221220d3e48d8d5cee4d13dd40892eb133d241208ae96e4fc6c2220f479734e3f502ce64736f6c63430008110033",
  "devdoc": {
    "kind": "dev",
    "methods": {},
    "version": 1
  },
  "userdoc": {
    "kind": "user",
    "methods": {},
    "version": 1
  },
  "storageLayout": {
    "storage": [],
    "types": null
  }
}